:100000001DC035C0B3C033C032C031C030C02FC0F6
:100010002EC02DC04DC02BC02AC029C028C05BC037
:100020005DC05CC05BC05AC059C058C057C056C004
:1000300062C062C061C060C064C062C011241FBEE3
:10004000CFEDCDBF10E0A0E6B0E0EAE7F2E002C0FD
:1000500005900D92A036B107D9F710E0A0E6B0E008
:1000600001C01D92AB3AB107E1F7E8D004C1C8CF97
:10007000382F2091A3002F5F2F738091A2002817A3
:1000800039F0E22FF0E0E05AFF4F32832093A300D3
:100090002091A3002F5F2F738091A200281739F0C1
:1000A000E22FF0E0E05AFF4F92832093A3000895DF
:1000B0001F920F920FB60F9211248F939F93EF937D
:1000C000FF9380916000E82FF0E0EF30F10598F5A4
:1000D000E15FFF4F0994C09A81E02BC080916100DD
:1000E00080FF02C0C09801C0C09A809161008695CF
:1000F0008093610001C0C098809160008F5F19C03B
:10010000C0989091A2008091A300981789F08091E7
:10011000A2008F5F8F738093A200E091A200F0E0B5
:10012000E05AFF4F8281809361001092600003C00B
:100130008EE0809360008091A8009091A9000196C4
:100140009093A9008093A8008091A8009091A900A5
:10015000892B19F481E08093A700FF91EF919F9183
:100160008F910F900FBE0F901F90189578941F924B
:100170000F920FB60F9211248F939F938BB78F7DA1
:100180008BBF86B384708093A4008091A7008823DE
:1001900019F08FEF9FEF04C08091A8009091A90003
:1001A0009093A6008093A5001092A9001092A80039
:1001B0001092A7008BB780628BBF9F918F910F9099
:1001C0000FBE0F901F9018958BB78F7D8BBF8091BE
:1001D000A5009091A600892B69F18091A5009091CE
:1001E000A60097FF03C08FEF9FE704C08091A50092
:1001F0009091A6009093A6008093A5008091A50001
:100200009091A600892BC9F08091A400882349F41D
:100210008091A5009091A60090689093A60080938D
:10022000A5008091A5009091A60022DF1092A60063
:100230001092A5008BB780628BBF0895F89480E878
:1002400088B9B89AC098C29AAA9A8BB780628BBFB5
:1002500080E189BF82E08ABD83BF84E389BD8EE0EF
:10026000809360001092A2008091A2008093A3006E
:0A0270007894AADFFECFF894FFCFC8
:00000001FF
